{
  "_format": "hh-sol-artifact-1",
  "contractName": "Transactions",
  "sourceName": "contracts/Transactions.sol",
  "abi": [
    {
      "inputs": [],
      "stateMutability": "nonpayable",
      "type": "constructor"
    },
    {
      "anonymous": false,
      "inputs": [
        {
          "indexed": true,
          "internalType": "address",
          "name": "sender",
          "type": "address"
        },
        {
          "indexed": true,
          "internalType": "address",
          "name": "receiver",
          "type": "address"
        },
        {
          "indexed": false,
          "internalType": "uint256",
          "name": "amount",
          "type": "uint256"
        },
        {
          "indexed": false,
          "internalType": "string",
          "name": "remark",
          "type": "string"
        },
        {
          "indexed": false,
          "internalType": "uint256",
          "name": "timestamp",
          "type": "uint256"
        }
      ],
      "name": "Transfer",
      "type": "event"
    },
    {
      "inputs": [],
      "name": "getAmount",
      "outputs": [
        {
          "internalType": "uint256",
          "name": "",
          "type": "uint256"
        }
      ],
      "stateMutability": "view",
      "type": "function"
    },
    {
      "inputs": [
        {
          "internalType": "address",
          "name": "addr",
          "type": "address"
        }
      ],
      "name": "getBalance",
      "outputs": [
        {
          "internalType": "uint256",
          "name": "",
          "type": "uint256"
        }
      ],
      "stateMutability": "view",
      "type": "function"
    },
    {
      "inputs": [],
      "name": "getReceiver",
      "outputs": [
        {
          "internalType": "address",
          "name": "",
          "type": "address"
        }
      ],
      "stateMutability": "view",
      "type": "function"
    },
    {
      "inputs": [
        {
          "internalType": "string",
          "name": "remark",
          "type": "string"
        }
      ],
      "name": "sendMoney",
      "outputs": [
        {
          "internalType": "bool",
          "name": "success",
          "type": "bool"
        }
      ],
      "stateMutability": "nonpayable",
      "type": "function"
    }
  ],
  "bytecode": "0x6080604052662386f26fc1000060015573e0c5123b0fd1a7d94bb8d84bbaf1026b699c6dc6600260006101000a81548173ffffffffffffffffffffffffffffffffffffffff021916908373ffffffffffffffffffffffffffffffffffffffff16021790555034801561007057600080fd5b50336000806101000a81548173ffffffffffffffffffffffffffffffffffffffff021916908373ffffffffffffffffffffffffffffffffffffffff1602179055503373ffffffffffffffffffffffffffffffffffffffff1631600360003273ffffffffffffffffffffffffffffffffffffffff1673ffffffffffffffffffffffffffffffffffffffff168152602001908152602001600020819055506107b88061011b6000396000f3fe608060405234801561001057600080fd5b506004361061004c5760003560e01c8063050dbadf1461005157806398aca92214610081578063d321fe291461009f578063f8b2cb4f146100bd575b600080fd5b61006b6004803603810190610066919061040f565b6100ed565b60405161007891906104d1565b60405180910390f35b6100896102ec565b60405161009691906104b6565b60405180910390f35b6100a7610316565b6040516100b491906104ec565b60405180910390f35b6100d760048036038101906100d291906103e6565b610320565b6040516100e491906104ec565b60405180910390f35b6000600154600360008060009054906101000a900473ffffffffffffffffffffffffffffffffffffffff1673ffffffffffffffffffffffffffffffffffffffff1673ffffffffffffffffffffffffffffffffffffffff16815260200190815260200160002054101561016257600090506102e7565b600154600360008060009054906101000a900473ffffffffffffffffffffffffffffffffffffffff1673ffffffffffffffffffffffffffffffffffffffff1673ffffffffffffffffffffffffffffffffffffffff16815260200190815260200160002060008282546101d4919061060d565b9250508190555060015460036000600260009054906101000a900473ffffffffffffffffffffffffffffffffffffffff1673ffffffffffffffffffffffffffffffffffffffff1673ffffffffffffffffffffffffffffffffffffffff168152602001908152602001600020600082825461024e91906105b7565b92505081905550600260009054906101000a900473ffffffffffffffffffffffffffffffffffffffff1673ffffffffffffffffffffffffffffffffffffffff163373ffffffffffffffffffffffffffffffffffffffff167fc4b32d7ff75a51e487f3cbb5d3202f2efecca1f4c2b987e0039c1d3220b48a8360015485426040516102da93929190610507565b60405180910390a3600190505b919050565b6000600260009054906101000a900473ffffffffffffffffffffffffffffffffffffffff16905090565b6000600154905090565b6000600360008373ffffffffffffffffffffffffffffffffffffffff1673ffffffffffffffffffffffffffffffffffffffff168152602001908152602001600020549050919050565b600061037c6103778461056a565b610545565b90508281526020810184848401111561039457600080fd5b61039f848285610689565b509392505050565b6000813590506103b68161076b565b92915050565b600082601f8301126103cd57600080fd5b81356103dd848260208601610369565b91505092915050565b6000602082840312156103f857600080fd5b6000610406848285016103a7565b91505092915050565b60006020828403121561042157600080fd5b600082013567ffffffffffffffff81111561043b57600080fd5b610447848285016103bc565b91505092915050565b61045981610641565b82525050565b61046881610653565b82525050565b60006104798261059b565b61048381856105a6565b9350610493818560208601610698565b61049c8161075a565b840191505092915050565b6104b08161067f565b82525050565b60006020820190506104cb6000830184610450565b92915050565b60006020820190506104e6600083018461045f565b92915050565b600060208201905061050160008301846104a7565b92915050565b600060608201905061051c60008301866104a7565b818103602083015261052e818561046e565b905061053d60408301846104a7565b949350505050565b600061054f610560565b905061055b82826106cb565b919050565b6000604051905090565b600067ffffffffffffffff8211156105855761058461072b565b5b61058e8261075a565b9050602081019050919050565b600081519050919050565b600082825260208201905092915050565b60006105c28261067f565b91506105cd8361067f565b9250827fffffffffffffffffffffffffffffffffffffffffffffffffffffffffffffffff03821115610602576106016106fc565b5b828201905092915050565b60006106188261067f565b91506106238361067f565b925082821015610636576106356106fc565b5b828203905092915050565b600061064c8261065f565b9050919050565b60008115159050919050565b600073ffffffffffffffffffffffffffffffffffffffff82169050919050565b6000819050919050565b82818337600083830152505050565b60005b838110156106b657808201518184015260208101905061069b565b838111156106c5576000848401525b50505050565b6106d48261075a565b810181811067ffffffffffffffff821117156106f3576106f261072b565b5b80604052505050565b7f4e487b7100000000000000000000000000000000000000000000000000000000600052601160045260246000fd5b7f4e487b7100000000000000000000000000000000000000000000000000000000600052604160045260246000fd5b6000601f19601f8301169050919050565b61077481610641565b811461077f57600080fd5b5056fea26469706673582212206c61855e3f08963a93c007d612b3c680c1d30bca1b9e22dcf8b1260627b0fdfb64736f6c63430008040033",
  "linkReferences": {},
  "deployedLinkReferences": {}
}